:020000040800F2
:1000000000000220712B0008210E0008230E0008BA
:10001000250E0008270E0008290E00080000000029
:100020000000000000000000000000002B0E00088F
:100030002D0E0008000000002F0E0008310E0008F1
:10004000C12B0008C12B0008C12B0008C12B0008E0
:10005000C12B0008C12B0008C12B0008C12B0008D0
:10006000C12B0008C12B0008C12B0008C12B0008C0
:10007000C12B0008C12B0008C12B0008C12B0008B0
:10008000C12B0008C12B0008C12B0008C12B0008A0
:10009000C12B0008C12B0008C12B0008C12B000890
:1000A000C12B0008C12B0008C12B0008C12B000880
:1000B000C12B0008C12B0008C12B0008C12B000870
:1000C000C12B0008C12B0008C12B0008C12B000860
:1000D000C12B0008390E0008C12B0008C12B0008F5
:1000E000C12B0008C12B0008C12B0008C12B000840
:1000F000C12B0008C12B0008C12B0008C12B000830
:10010000C12B0008C12B0008490E0008C12B0008B4
:10011000C12B0008C12B0008C12B0008C12B00080F
:10012000C12B0008C12B0008C12B0008C12B0008FF
:10013000C12B0008C12B0008C12B0008C12B0008EF
:10014000C12B0008C12B0008C12B0008C12B0008DF
:10015000C12B0008C12B0008C12B0008C12B0008CF
:10016000C12B0008C12B0008C12B0008C12B0008BF
:10017000C12B0008C12B0008C12B000800000000A3
:08018000C12B0008C12B00088F
:100188000348044B834202D0034B03B1184770471E
:100198000C0000200C000020000000000548064963
:1001A8000B1AD90F01EBA301491002D0034B03B17D
:1001B800184770470C0000200C00002000000000C9
:1001C80010B5064C237843B9FFF7DAFF044B13B197
:1001D8000448AFF300800123237010BD0C000020F9
:1001E80000000000C42B000808B5044B1BB10449EB
:1001F8000448AFF30080BDE80840CFE700000000E6
:1002080010000020C42B000870B50D4E0D4D761B54
:10021800B61006D0002455F8043B01349847A6428E
:10022800F9D1094E094D761B02F0C8FCB61006D06C
:10023800002455F8043B01349847A642F9D170BD13
:10024800FC2B0008FC2B0008002C0008FC2B0008E5
:10025800830730B548D0541E002A3FD0CAB203469F
:1002680001E0013C3AD303F8012B9D07F9D1032C97
:100278002DD9CDB245EA05250F2C45EA054536D9D5
:10028800A4F1100222F00F0C03F1200EE6444FEA0D
:10029800121C03F1100242E9045542E902551032DA
:1002A8007245F8D10CF1010214F00C0F03EB0212A5
:1002B80004F00F0C13D0ACF1040323F00303043350
:1002C800134442F8045B9342FBD10CF003042CB1B5
:1002D800CAB21C4403F8012B9C42FBD130BD6446D2
:1002E8001346002CF4D1F9E703461446BFE71A4633
:1002F800A446E0E753B94AB9002908BF00281CBF43
:100308004FF0FF314FF0FF3000F074B9ADF1080C39
:100318006DE904CE00F006F8DDF804E0DDE902231B
:1003280004B070472DE9F047089D04468E46002B1F
:100338004DD18A42944669D9B2FA82F252B101FA91
:1003480002F3C2F1200120FA01F10CFA02FC41EAA1
:10035800030E94404FEA1C48210CBEFBF8F61FFA26
:100368008CF708FB16E341EA034306FB07F19942C1
:100378000AD91CEB030306F1FF3080F01F81994274
:1003880040F21C81023E63445B1AA4B2B3FBF8F04E
:1003980008FB103344EA034400FB07F7A7420AD9D5
:1003A8001CEB040400F1FF3380F00A81A74240F2FD
:1003B80007816444023840EA0640E41B00261DB168
:1003C800D4400023C5E900433146BDE8F0878B429D
:1003D80009D9002D00F0EF800026C5E9000130465C
:1003E8003146BDE8F087B3FA83F6002E4AD18B4236
:1003F80002D3824200F2F980841A61EB03030120E0
:100408009E46002DE0D0C5E9004EDDE702B9FFDECB
:10041800B2FA82F2002A40F09280A1EB0C014FEA76
:100428001C471FFA8CFE0126200CB1FBF7F307FBD3
:10043800131140EA01410EFB03F0884208D91CEB76
:10044800010103F1FF3802D2884200F2CB80434613
:10045800091AA4B2B1FBF7F007FB101144EA0144F2
:100468000EFB00FEA64508D91CEB040400F1FF3181
:1004780002D2A64500F2BB800846A4EB0E0440EA6F
:1004880003409CE7C6F12007B34022FA07FC4CEA78
:10049800030C20FA07F401FA06F31C43F9404FEA6B
:1004A8001C4900FA06F3B1FBF9F8200C1FFA8CFE80
:1004B80009FB181140EA014108FB0EF0884202FAD4
:1004C80006F20BD91CEB010108F1FF3A80F0888095
:1004D800884240F28580A8F102086144091AA4B252
:1004E800B1FBF9F009FB101144EA014100FB0EFED3
:1004F8008E4508D91CEB010100F1FF346CD28E4502
:100508006AD90238614440EA0840A0FB0294A1EB92
:100518000E01A142C846A64656D353D05DB1B3EBEF
:10052800080261EB0E0101FA07F722FA06F3F1401F
:100538001F43C5E9007100263146BDE8F087C2F1C6
:100548002003D8400CFA02FC21FA03F3914001433E
:100558004FEA1C471FFA8CFEB3FBF7F007FB103677
:100568000B0C43EA064300FB0EF69E4204FA02F423
:1005780008D91CEB030300F1FF382FD29E422DD976
:10058800023863449B1B89B2B3FBF7F607FB1633AB
:1005980041EA034106FB0EF38B4208D91CEB01012B
:1005A80006F1FF3816D28B4214D9023E6144C91AAB
:1005B80046EA004638E72E46284605E70646E3E6BB
:1005C8001846F8E64B45A9D2B9EB020864EB0C0EC5
:1005D8000138A3E74646EAE7204694E74046D1E7D4
:1005E800D0467BE7023B614432E7304609E7644482
:1005F800023842E7704700BF72B6FEE700B595B013
:100608003022002108A8FFF723FE00230393049358
:1006180005930693079301931F4A116C41F080518B
:100628001164126C02F080520192019A02931B4AE3
:10063800116841F480411160126802F4804202920C
:10064800029A0222089201210B9110210C910E921C
:100658000F9308231093A823119312920423139342
:1006680008A800F0A3FD98B90F230393022304936D
:10067800002305934FF4A05306934FF48053079338
:10068800052103A800F0F8FF20B915B05DF804FBB8
:10069800FFF7B2FFFFF7B0FF0038024000700040DC
:1006A80008B501F0A7FAFFF7A9FF00F011F800F06C
:1006B80015FB00F07BF800F0E5F800F001F900F018
:1006C80069FA00F0B9FA00F023FB00F095F9FEE7AB
:1006D800F0B58DB000240794089409940A940B94FB
:1006E80001942F4B1A6B42F010021A631A6B02F036
:1006F80010020192019A02941A6B42F080021A6366
:100708001A6B02F080020292029A03941A6B42F06A
:1007180001021A631A6B02F001020392039A04940D
:100728001A6B42F008021A631A6B02F0080204926C
:10073800049A05941A6B42F004021A631A6B02F0C9
:1007480004020592059A06941A6B42F002021A6393
:100758001B6B03F002030693069B124F22460421EB
:10076800384601F051F9104D22464FF40841284609
:1007780001F04AF9042307930126089609940A947C
:1007880007A9384601F04EF84FF408430793089636
:1007980009940A9407A9284601F044F80DB0F0BD61
:1007A8000038024000100240000C024000B585B03D
:1007B800002300930193029303931548154A02609E
:1007C8004FF48032426083600361037680F8203002
:1007D800C362114A8262C3600122C26180F830306C
:1007E800426100F0EBFB68B90423009301230193F5
:1007F800002302936946064800F00CFC28B905B0AE
:100808005DF804FBFFF7F8FEEEE7FFF7F5FEF6E705
:1008180028000020002001400100000F00B589B029
:10082800002303930493059306930793026803F147
:10083800804303F590339A4202D009B05DF804FB77
:100848000021019103F58C335A6C42F480725A648A
:100858005A6C02F480720192019A02911A6B42F06A
:1008680001021A631B6B03F001030293029B10231E
:1008780003930323049303A9014800F0D3FFDCE7A3
:100888000000024008B50B480B4B03600B4B43605C
:1008980000238360C3604FF4804202614361836137
:1008A800C361036201F0D2F900B908BDFFF7A4FEE5
:1008B800FBE700BF7000002000540040801A0600CB
:1008C80008B50B480B4B03600B4B43600023836058
:1008D800C3604FF48042026143618361C361036274
:1008E80001F0B4F900B908BDFFF786FEFBE700BFC9
:1008F800C4000020005C0040801A06002DE9F04189
:100908008AB0002305930693079308930993036815
:10091800334A934205D0334A934225D00AB0BDE802
:10092800F08100250095304C236B43F002032363CC
:10093800236B03F002030093009BC023059312234B
:100948000693032308930423099305A9274800F075
:1009580069FF0195236C43F400132364236C03F4AB
:1009680000130193019BD9E7002502951E4C236BC8
:1009780043F004032363236B03F004030293029BF5
:100988000395236B43F001032363236B03F00103F7
:100998000393039B4FF4007305934FF01208CDF8AF
:1009A8001880032708970426099605A9104800F01F
:1009B80039FF4FF480730593CDF818800795089791
:1009C800099605A90B4800F02DFF0495236C43F404
:1009D80000032364236C03F400030493049B9DE742
:1009E80000540040005C004000380240000402400F
:1009F800000802400000024000B587B000230293BF
:100A0800039304930593009301931548154A0260D4
:100A1800532242608360144AC26003618023836169
:100A280001F0D2FB90B94FF48053029302A90C480D
:100A380001F0D5FC68B90023009301936946084882
:100A480001F04CFD40B907B05DF804FBFFF7D4FD99
:100A5800E9E7FFF7D1FDEEE7FFF7CEFDF3E700BFCB
:100A6800A8010020000C004090D0030082B0036869
:100A7800104A934204D0104A93420ED002B07047F5
:100A8800002300930D4B1A6C42F002021A641B6C8F
:100A980003F002030093009BF0E700230193074B48
:100AA8001A6C42F004021A641B6C03F004030193ED
:100AB800019BE3E7000400400008004000380240C2
:100AC80002680E4B9A4200D0704700B583B00022EE
:100AD800019203F50B33196C41F0080119641B6C82
:100AE80003F008030193019B0721322001F002F86B
:100AF800322001F037F803B05DF804FB000C004029
:100B080000B589B0002303930493059306930793D4
:100B180003681B4A934205D01A4A934219D009B078
:100B28005DF804FB00230193174B1A6B42F0040293
:100B38001A631B6B03F004030193019B4FF4E073EA
:100B4800039302230493079303A9104800F06AFE55
:100B5800E5E7002302930C4B1A6B42F008021A6374
:100B68001B6B03F008030293029B4FF4E0430393CB
:100B780002230493079303A9054800F053FECEE728
:100B8800000400400008004000380240000802400D
:100B9800000C024000B58BB0002308930993019321
:100BA8000293039304930593069307932048214ADD
:100BB80002601422426083606322C2600361836121
:100BC80001F02EFB28BB00230893099308A91848B5
:100BD80001F084FC00BB602301930022029203927F
:100BE800059201A9124801F07FFBC0B904220DEB60
:100BF80002010F4801F078FBA0B9082201A90C48AE
:100C080001F072FB88B90A48FFF77AFF0BB05DF86C
:100C180004FBFFF7F1FCD6E7FFF7EEFCDBE7FFF795
:100C2800EBFCE3E7FFF7E8FCE7E7FFF7E5FCEAE7BB
:100C3800180100200004004000B58BB00023089381
:100C480009930193029303930493059306930793DF
:100C58002048214A02601422426083606322C260F5
:100C68000361836101F0DCFA28BB00230893099330
:100C780008A9184801F032FC00BB60230193002248
:100C880002920392059201A9124801F02DFBC0B906
:100C980004220DEB02010F4801F026FBA0B908223F
:100CA80001A90C4801F020FB88B90A48FFF728FF82
:100CB8000BB05DF804FBFFF79FFCD6E7FFF79CFC41
:100CC800DBE7FFF799FCE3E7FFF796FCE7E7FFF7B9
:100CD80093FCEAE7600100200008004008B50A48D4
:100CE8000A4B03604FF4E133436000238360C36021
:100CF80003610C2242618361C36101F01DFD00B9EB
:100D080008BDFFF779FCFBE7F00100200010014067
:100D180008B50A480A4B03600A4B43600023836006
:100D2800C36003610C2242618361C36101F004FD69
:100D380000B908BDFFF760FCFBE700BF38020020E0
:100D48000044004040420F0010B58AB000230593CC
:100D5800069307930893099303682B4A934204D098
:100D68002A4A93422DD00AB010BD00240194284B82
:100D78005A6C42F010025A645A6C02F01002019246
:100D8800019A02941A6B42F001021A631B6B03F07A
:100D980001030293029B4FF4C06305930223069359
:100DA800032308930723099305A91A4800F03AFD7D
:100DB80022462146252000F09DFE252000F0D2FE87
:100DC800D1E700210391124B1A6C42F400321A64E5
:100DD8001A6C02F400320392039A04911A6B42F0DF
:100DE80001021A631B6B03F001030493049B0C2399
:100DF800059302230693032308930723099305A960
:100E0800044800F00FFDAEE7001001400044004028
:100E18000038024000000240FEE7FEE7FEE7FEE77A
:100E2800FEE770477047704708B500F0FDFE08BD43
:100E380008B5024801F03CFD08BD00BFF0010020E4
:100E480008B5024801F0A8F808BD00BFA8010020B5
:100E580082B0002100910B4B5A6C42F480425A64D4
:100E68005A6C02F480420092009A01911A6C42F086
:100E780080521A641B6C03F080530193019B02B0EB
:100E8800704700BF003802404A4B5A6822F440328B
:100E98005A605A6841680A435A600268536823F4E2
:100EA8008073536002685368016943EA0123536001
:100EB8000268536823F0407353600268536881687E
:100EC8000B4353600268936823F4006393600268DD
:100ED8009368C1680B439360826A374B9A4257D034
:100EE8000268936823F07063936002689368816A6C
:100EF8000B4393600268936823F040539360026841
:100F08009368C16A0B4393600268936823F00203F5
:100F1800936002689368017E43EA4103936090F806
:100F28002030002B3FD00268536843F400635360BD
:100F38000268536823F46043536001684B68426A4F
:100F4800013A43EA42334B600268D36A23F47003E0
:100F5800D3620168CB6AC269013A43EA0253CB62A1
:100F68000268936823F4007393600268936890F8AA
:100F7800301043EA412393600268936823F4806346
:100F8800936002689368416943EA812393607047DC
:100F98000268936823F0706393600268936823F093
:100FA80040539360B0E70268536823F400635360CA
:100FB800CAE700BF002301400100000F38B310B595
:100FC8000446036C43B1236C13F0100F0BD00120BF
:100FD800002384F83C3010BDFFF720FC0023636435
:100FE80084F83C30EFE7236C23F4885323F00203A2
:100FF80043F0020323642046FFF746FF00206064A5
:10100800236C23F0030343F001032364E0E701208A
:101018007047000030B482B00023019390F83C3050
:10102800012B00F0BB80012380F83C300B68092BB2
:1010380041D90468E2689BB203EB43031E3B4FF0BF
:10104800070C0CFA03F322EA0303E3600468E2687E
:101058000B8803EB43031E3B8D6805FA03F3134328
:10106800E3604B68062B3DD80468626B03EB83038F
:10107800053B4FF01F0C0CFA03F322EA03036363EA
:101088000468626B4B6803EB8303053BB1F800C04F
:101098000CFA03F3134363630268414B9A4251D03D
:1010A80002683F4B9A4256D0002380F83C301846DD
:1010B80002B030BC7047046822699BB203EB43035B
:1010C8004FF0070C0CFA03F322EA030323610468C8
:1010D80022690B8803EB43038D6805FA03F3134376
:1010E8002361BEE70C2B16D805682A6B03EB830334
:1010F800233B1F2404FA03F322EA03032B63056846
:101108002A6B4B6803EB8303233B0C8804FA03F335
:1011180013432B63C0E70568EA6A03EB8303413B8B
:101128001F2404FA03F322EA0303EB620568EA6A60
:101138004B6803EB8303413B0C8804FA03F3134326
:10114800EB62A9E70B68122BAAD1164A536843F43D
:1011580080035360A4E70B68103B012BA4D8114A05
:10116800536843F4000353600B68102B9CD10E4B5B
:101178001B6802F1467202F52E3202F28332A2FB9C
:1011880003239B0C03EB83035B00019302E0019BA9
:10119800013B0193019B002BF9D185E7022087E7EA
:1011A800002001400023014008000020002800F032
:1011B800E08170B582B00446036813F0010F3BD09C
:1011C8009F4B9B6803F00C03042B2CD09C4B9B6813
:1011D80003F00C03082B21D06368B3F5803F4FD090
:1011E800B3F5A02F52D0964B1A6822F480321A60B9
:1011F8001A6822F480221A606368002B50D000F02D
:101208001FFD05468E4B1B6813F4003F14D100F0F8
:1012180017FD401B6428F5D90320B1E1884B5B68B2
:1012280013F4800FD8D0864B1B6813F4003F03D00B
:101238006368002B00F09F81236813F0020F54D0DD
:101248007F4B9B6813F00C0F3ED07D4B9B6803F0DF
:101258000C03082B33D0E368002B68D0794B0122AC
:101268001A6000F0EDFC0546754B1B6813F0020F81
:1012780054D100F0E5FC401B0228F5D903207FE19A
:101288006F4A136843F480331360B5E76C4B1A68F0
:1012980042F480221A601A6842F480321A60ABE77E
:1012A80000F0CEFC0546664B1B6813F4003FC3D024
:1012B80000F0C6FC401B6428F5D9032060E1604BB0
:1012C8005B6813F4800FC6D15D4B1B6813F0020FE7
:1012D80003D0E368012B40F05081594A136823F08A
:1012E800F803216943EAC1031360236813F0080F68
:1012F80042D063696BB3534B0122C3F8802E00F0D0
:101308009FFC05464E4B5B6F13F0020F34D100F083
:1013180097FC401B0228F5D9032031E1484A13689D
:1013280023F0F803216943EAC1031360DDE7454B65
:1013380000221A6000F084FC0546414B1B6813F03C
:10134800020FD2D000F07CFC401B0228F5D9032004
:1013580016E13C4B0022C3F8802E00F071FC0546D4
:10136800374B5B6F13F0020F06D000F069FC401B8F
:101378000228F5D9032003E1236813F0040F77D07E
:101388002F4B1B6C13F0805F33D1002301932C4B40
:101398001A6C42F080521A641B6C03F0805301935C
:1013A800019B0125284B1B6813F4807F23D0A36879
:1013B800012B34D0052B38D0214B1A6F22F00102B3
:1013C8001A671A6F22F004021A67A368002B3DD02F
:1013D80000F036FC06461A4B1B6F13F0020F46D17D
:1013E80000F02EFC801B41F288339842F3D9032089
:1013F800C6E00025D6E7144A136843F480731360E7
:1014080000F01EFC0646104B1B6813F4807FCED1FB
:1014180000F016FC801B0228F5D90320B0E0084A2A
:10142800136F43F001031367CFE7054B1A6F42F0C0
:1014380004021A671A6F42F001021A67C5E700BF73
:1014480000380240000047420070004000F0F8FBFE
:101458000646524B1B6F13F0020F08D000F0F0FB4A
:10146800801B41F288339842F3D9032088E0EDB914
:10147800A369002B00F08380484A926802F00C02AE
:10148800082A51D0022B17D0454B00221A6600F0CB
:10149800D7FB0446414B1B6813F0007F42D000F095
:1014A800CFFB001B0228F5D9032069E03B4A136CE7
:1014B80023F080531364DBE7394B00221A6600F0EF
:1014C800BFFB0546354B1B6813F0007F06D000F0C4
:1014D800B7FB401B0228F5D9032051E0E369226AD3
:1014E8001343626A43EA8213A26A5208013A43EA42
:1014F8000243E26A43EA0263284A5360284B012206
:101508001A6600F09DFB0446244B1B6813F0007F0D
:1015180006D100F095FB001B0228F5D903202FE027
:1015280000202DE000202BE0012B2BD01B4B5B680B
:1015380003F48001E269914226D103F03F02216A57
:101548008A4223D1616A47F6C0721A40B2EB811F02
:101558001ED103F44031A26A5208013AB1EB024F9E
:1015680018D103F07063E26AB3EB026F14D1002064
:1015780006E001207047012002E0012000E0002081
:1015880002B070BD0120FBE70120F9E70120F7E771
:101598000120F5E70120F3E70120F1E700380240D8
:1015A8000000474208B5314B9B6803F00C03042B3D
:1015B80057D0082B57D12D4B5A6802F03F025B6871
:1015C80013F4800F2AD0294B5968C1F3881C4FEABD
:1015D8004C11B1EB0C006EEB0E0E4FEA8E1343EA82
:1015E80090638101091A63EB0E03DB0043EA517330
:1015F800C90011EB0C0C43F10003590200234FEA18
:101608004C2041EADC51FEF775FE184B5B68C3F3CA
:10161800014301335B00B0FBF3F025E0134B59683D
:10162800C1F3881C4FEA4C11B1EB0C006EEB0E0EA7
:101638004FEA8E1343EA90638101091A63EB0E03A4
:10164800DB0043EA5173C90011EB0C0C43F10003B2
:10165800990200234FEA8C2041EA9C51FEF74AFE8A
:10166800D3E7034800E0034808BD00BF0038024044
:1016780000127A000024F400002800F09B8070B566
:101688000D4604464F4B1B6803F007038B4208D2F4
:10169800CBB24C4A1370136803F007038B4240F037
:1016A8008B80236813F0020F17D013F0040F04D0B7
:1016B800454A936843F4E0539360236813F0080F96
:1016C80004D0414A936843F4604393603E4A936868
:1016D80023F0F003A1680B439360236813F0010F14
:1016E80032D06368012B21D09A1E012A25D9364AA7
:1016F800126812F0020F61D033498A6822F003029F
:1017080013438B6000F09CFA06462F4B9B6803F04E
:101718000C036268B3EB820F16D000F091FA801BBD
:1017280041F288339842F0D9032042E0264A1268F1
:1017380012F4003FE0D101203BE0234A126812F086
:10174800007FD9D1012034E01E4B1B6803F007034A
:10175800AB4207D9EAB21B4B1A701B6803F00703A8
:10176800AB422DD1236813F0040F06D0164A9368B4
:1017780023F4E053E1680B439360236813F0080FE8
:1017880007D0114A936823F46043216943EAC103EF
:101798009360FFF707FF0C4B9B68C3F303130B4AD7
:1017A800D35CD8400A4B18600A4B186800F0FCF963
:1017B800002070BD012070470120FAE70120F8E7FA
:1017C8000120F6E7003C024000380240DC2B00080C
:1017D8000800002004000020014B1868704700BF73
:1017E8000800002008B5FFF7F7FF044B9B68C3F318
:1017F8008223034AD35CD84008BD00BF00380240AA
:10180800EC2B000808B5FFF7E7FF044B9B68C3F310
:101818004233034AD35CD84008BD00BF00380240B9
:10182800EC2B000800230F2B00F2E48070B582B087
:1018380060E085685E000324B44025EA0405CC68AE
:10184800B4402C438460456825EA02054C68C4F31B
:1018580000129A402A4342605AE0DC08083450F8E3
:10186800246003F0070295000F22AA4026EA020E20
:101878000A69AA4042EA0E0240F824205CE00722E6
:1018880000E0002202FA0EF22A4302345A4D45F8CB
:1018980024205A4A94686FEA0C0224EA0C054E6820
:1018A80016F4801F01D04CEA0405544CA560E46886
:1018B80002EA04054E6816F4001F01D04CEA04053C
:1018C8004E4CE560646802EA04054E6816F4003F71
:1018D80001D04CEA0405494C6560246822404D68F3
:1018E80015F4803F01D04CEA0402444C22600133D5
:1018F8000F2B7DD801229A400C6804EA020C32EAC8
:101908000404F4D14C6804F00304013C012C90D980
:101918004A6802F00302032A09D0C4685D00032262
:10192800AA4024EA02048A68AA402243C2604A689C
:1019380002F00302022A90D004684FEA430E032201
:1019480002FA0EF224EA02044A6802F0030202FADA
:101958000EF2224302604A6812F4403FC7D00022C8
:101968000192274A546C44F480445464526C02F443
:1019780080420192019A9C08A51C1F4A52F82550E2
:1019880003F003024FEA820E0F2202FA0EF225EA52
:1019980002051C4A90423FF474AF02F580629042FF
:1019A8001AD002F58062904218D002F58062904207
:1019B80016D002F58062904214D002F580629042FF
:1019C80012D002F58062904210D002F580629042F7
:1019D8003FF455AF082255E7012253E7022251E7A9
:1019E80003224FE704224DE705224BE7062249E789
:1019F80002B070BD704700BF00380140003C014094
:101A080000380240000002400AB1816170470904B1
:101A18008161704770B50446866D00F011F994F83D
:101A28003530DBB2022B06D080236365002384F8AF
:101A38003430012070BD05462268136823F0160370
:101A480013602268536923F080035361236CE3B168
:101A58002268136823F0080313602268136823F0D0
:101A68000103136023681B6813F0010F11D000F005
:101A7800E7F8431B052BF5D920236365032084F879
:101A88003500002384F83430D4E7A36C002BDFD171
:101A9800E3E7E26D3F239340B360012384F83530D8
:101AA800002084F83400C5E790F83530DBB2022B0B
:101AB80003D08023436501207047052380F8353023
:101AC8000268136823F001031360002070470000C8
:101AD800074AD36823F4E0631B041B0C000200F4DC
:101AE800E060034343F0BF6343F40033D3607047BF
:101AF80000ED00E000B5194BDB68C3F30223C3F126
:101B0800070CBCF1040F28BF4FF0040C03F1040EBE
:101B1800BEF1060F18D9033B4FF0FF3E0EFA0CFC3E
:101B280021EA0C0199400EFA03F322EA0303194350
:101B380000280BDB0901C9B200F1604000F56140E3
:101B480080F800135DF804FB0023E5E700F00F00C0
:101B58000901C9B2024B1954F4E700BF00ED00E0D7
:101B680014ED00E0002807DB00F01F024009012304
:101B78009340024A42F82030704700BF00E100E07D
:101B88000138B0F1807F0BD24FF0E0235861054A4D
:101B9800F02182F823100020986107221A6170470B
:101BA8000120704700ED00E010B504460E4B187890
:101BB8004FF47A73B3FBF0F30C4A1068B0FBF3F000
:101BC800FFF7DEFF68B90F2C01D901200AE00022D7
:101BD80021464FF0FF30FFF78DFF054B1C600020BA
:101BE80000E0012010BD00BF000000200800002018
:101BF8000400002008B50B4B1A6842F400721A6002
:101C08001A6842F480621A601A6842F480721A6094
:101C18000320FFF75DFF0F20FFF7C6FFFFF718F956
:101C2800002008BD003C0240034A1168034B1B78A2
:101C38000B441360704700BF8002002000000020A2
:101C4800014B1868704700BF80020020002800F090
:101C5800CC8070B5044690F83D30002B77D0242313
:101C680084F83D302268136823F00103136022686A
:101C7800136843F4004313602268136823F4004395
:101C88001360FFF7AFFD62685A4B9A4264D85A4B0B
:101C980098428CBF00230123002B40F0A8805749AD
:101CA800A1FB00318B0C25686A6822F03F0242EAEA
:101CB80091426A6021680A6A22F03F0266684D4DC7
:101CC800AE424FD8013313430B622168CA6922F42C
:101CD8004F4222F0FF026668464B9E424CD8431E94
:101CE8007600B3FBF6F3013340F6FC70034278D07C
:101CF800C3F30B031343CB6121680B6823F0C003C4
:101D0800E269206A024313430B6021688B6823F45D
:101D1800034323F0FF032269E068024313438B6007
:101D28002168CB6823F0FF036269A069024313436B
:101D3800CB602268136843F001031360002020641D
:101D4800202384F83D30206384F83E0070BD80F87D
:101D58003C30FEF7D3FD82E7294B98428CBF002325
:101D6800012399E74FF4967505FB03F3254DA5FB71
:101D780003539B090133A6E7A368BBB9451E06EBCD
:101D8800460CB5FBFCF50135C5F30B05B5FA85F531
:101D98006D0945BBC3B9013806EB4603B0FBF3F345
:101DA8000133C3F30B0343F40043A3E7451E06EBDB
:101DB800860C0CEB8C0CB5FBFCF50135C5F30B055B
:101DC800B5FA85F56D09E4E7013806EB860303EB00
:101DD8008303B0FBF3F30133C3F30B0343F4404332
:101DE80088E7042386E7012384E701207047012060
:101DF800ACE700BFA08601007F841E0083DE1B4382
:101E0800FF083D00D34D621030B4036A026A22F025
:101E1800010202624268846924F073040D682C434D
:101E280023F0020C8B6843EA0C03104DA84203D040
:101E380005F58065A84205D123F00803CD682B433A
:101E480023F00403094DA84203D005F58065A84294
:101E580005D122F440724D692A438D692A434260B4
:101E680084614A684263036230BC704700000140E5
:101E780030B4036A026A22F4807202624268C4695A
:101E880024F0730C0C6844EA0C0523F400738C6886
:101E980043EA0423114CA04203D004F58064A04215
:101EA80006D123F40063CC6843EA042323F4806357
:101EB8000A4CA04203D004F58064A04207D122F462
:101EC80040524C6942EA04128C6942EA04124260A8
:101ED800C5614A68C263036230BC704700000140B4
:101EE80030B4036A026A22F4805202624468C2690A
:101EF80022F4E6420D6842EA052223F400538D6875
:101F080043EA0533094DA84203D005F58065A84288
:101F180004D124F480444D6944EA85144460C261C4
:101F28004A680264036230BC704700BF0000014089
:101F380010B4036A046A24F001040462846924F07A
:101F4800F00C4CEA021223F00A030B43826103628D
:101F58005DF8044B704710B4036A046A24F0100457
:101F68000462846924F4704C4CEA023223F0A00322
:101F780043EA0113826103625DF8044B704783688A
:101F880023F070030B4343F00703836070477047E7
:101F9800704770477047704770B504460368DE683D
:101FA8001D6915F0020F10D016F0020F0DD06FF05A
:101FB80002021A610123037703689B6913F0030F78
:101FC8005ED0FFF7E6FF0023237715F0040F12D049
:101FD80016F0040F0FD023686FF004021A61022371
:101FE800237723689B6913F4407F4FD02046FFF77F
:101FF800D0FF0023237715F0080F12D016F0080F32
:102008000FD023686FF008021A610423237723682E
:10201800DB6913F0030F40D02046FFF7BAFF002317
:10202800237715F0100F12D016F0100F0FD0236879
:102038006FF010021A61082323772368DB6913F411
:10204800407F31D02046FFF7A4FF0023237715F007
:10205800010F02D016F0010F2DD115F0800F02D01C
:1020680016F0800F2FD115F0400F02D016F0400F58
:1020780031D115F0200F02D016F0200F33D170BDEA
:10208800FFF786FF2046FFF785FF9CE72046FFF70E
:102098007FFF2046FFF77EFFABE72046FFF778FF7C
:1020A8002046FFF777FFBAE72046FFF771FF204683
:1020B800FFF770FFC9E723686FF001021A61204635
:1020C800FFF765FFC9E723686FF080021A612046B1
:1020D80000F04BFAC7E723686FF040021A61204608
:1020E800FFF759FFC5E723686FF020021A61204601
:1020F80000F03AFAC3E700000368324A904212D06F
:10210800B0F1804F0FD0A2F57C4290420BD002F57F
:102118008062904207D002F58062904203D002F5B7
:102128007842904203D123F070034A681343254A4A
:1021380090422AD0B0F1804F27D0A2F57C4290423D
:1021480023D002F5806290421FD002F5806290424F
:102158001BD002F57842904217D002F57052904297
:1021680013D002F5806290420FD002F5806290424F
:102178000BD0A2F59832904207D002F580629042C7
:1021880003D002F58062904203D123F44073CA68F9
:10219800134323F080034A6913438A68C2620A68BA
:1021A8008262084A904203D002F58062904201D1CF
:1021B8000A690263026842F0040202600122426175
:1021C800036070470000014040B310B5044690F822
:1021D8003D30F3B1022384F83D30214651F8040B19
:1021E800FFF78AFF012384F8463084F83E3084F8EC
:1021F8003F3084F8403084F8413084F8423084F825
:10220800433084F8443084F8453084F83D30002069
:1022180010BD80F83C30FEF753FCDBE70120704727
:1022280040B310B5044690F83D30F3B1022384F86A
:102238003D30214651F8040BFFF75EFF012384F877
:10224800463084F83E3084F83F3084F8403084F8D3
:10225800413084F8423084F8433084F8443084F8BC
:10226800453084F83D30002010BD80F83C30FEF742
:10227800FDFBDBE70120704730B4036A026A22F0F5
:10228800100202624468826922F4E6420D6842EA5A
:10229800052223F020038D6843EA0513114DA84257
:1022A80003D005F58065A84206D123F08003CD68E8
:1022B80043EA051323F040030A4DA84203D005F56D
:1022C8008065A84207D124F440644D6944EA850436
:1022D8008D6944EA8504446082614A6882630362C6
:1022E80030BC70470000014038B590F83C30012BF5
:1022F80066D004460D46012380F83C300C2A5AD893
:10230800DFE802F0075959591B5959593059595999
:1023180044000068FFF778FD2268936943F00803DA
:1023280093612268936923F0040393612268936997
:1023380029690B43936100203EE00068FFF79CFF8A
:102348002268936943F4006393612268936923F4D4
:102358008063936122689369296943EA0123936141
:10236800002029E00068FFF783FD2268D36943F065
:102378000803D3612268D36923F00403D361226878
:10238800D36929690B43D361002015E00068FFF782
:10239800A7FD2268D36943F40063D3612268D36937
:1023A80023F48063D3612268D369296943EA01234E
:1023B800D361002000E00120002384F83C3038BDC0
:1023C8000220FCE710B4846824F47F4C42EA03221C
:1023D8000A4342EA0C0282605DF8044B704790F8A9
:1023E8003C30012B78D010B50446012380F83C30EE
:1023F800022380F83D300268936823F47F4323F07A
:10240800770393600B68602B4CD029D8402B54D0AD
:102418000CD9502B22D1CA6849680068FFF788FD9B
:1024280050212068FFF7ABFD002005E0202B0DD0E0
:1024380009D9302B0AD00120012384F83D3000232C
:1024480084F83C3010BD0BB1102B05D1194620681B
:10245800FFF795FD0020EFE70120EDE70120EBE70E
:10246800B3F5805F34D0B3F5005F0CD1CB684A6810
:1024780089680068FFF7A6FF2268936843F48043E1
:1024880093600020D8E7702B24D1CB684A6889680C
:102498000068FFF797FF2268936843F0770393601B
:1024A8000020C9E7CA6849680068FFF754FD602141
:1024B8002068FFF764FD0020BEE7CA684968006825
:1024C800FFF736FD40212068FFF759FD0020B3E7EC
:1024D8000020B1E70120AFE70220704790F83C30B8
:1024E800012B3DD010B4012380F83C30022380F842
:1024F8003D3003685A689C6822F0700C0A6842EA0A
:102508000C025A600368174A93421AD0B3F1804FFD
:1025180017D0A2F57C42934213D002F58062934211
:102528000FD002F5806293420BD002F578429342B5
:1025380007D002F57052934203D0A2F59432934229
:1025480004D124F080044A6814439C60012380F875
:102558003D30002380F83C3018465DF8044B704746
:10256800022070470000014070477047026802F17E
:102578000C0353E8003F23F490730C3242E8003117
:102588000029F3D1026802F1140353E8003F23F055
:102598000103143242E800310029F3D1036B012B07
:1025A80005D0202380F84230002303637047026877
:1025B80002F10C0353E8003F23F010030C3242E809
:1025C80000310029F3D1ECE790F84130DBB2212B40
:1025D80001D0022070478368B3F5805F17D0036A83
:1025E8005A1C02621A7803685A60C38C9BB2013B7A
:1025F8009BB2C3844BB90268D36823F08003D360CD
:102608000268D36843F04003D36000207047036931
:10261800002BE4D1036A1B880268C3F308035360E4
:10262800036A02330362E0E738B5044602681369B7
:1026380023F44053C1680B43136183680269134351
:1026480042691343C2691A430168CB6823F41643ED
:1026580023F00C031343CB600268536923F44073DF
:1026680081690B4353610368314A934206D002F5EE
:102678008062934202D0FFF7B5F801E0FFF7C2F895
:10268800E369B3F5004F29D00021031849411B180D
:1026980041F10001C90041EA5371DB001818636871
:1026A8004FEA83024FEA937341F10001FDF722FEDE
:1026B800204DA5FB00325109642303FB11031B01C4
:1026C8003233A5FB03235B0903F0F00202EB01128E
:1026D80003F00F03216813448B6038BD00230218F0
:1026E80043EB0301121841F10001C90041EA52719C
:1026F800D200101841F10001626892185B41FDF7A1
:10270800F9FD0C4DA5FB00325109642303FB1103AD
:10271800DB003233A5FB03235B095A0002F4F8728D
:1027280002EB011203F00703216813448B60D4E71E
:10273800001001401F85EB5160B310B5044690F8B6
:10274800413013B3242384F841302268D36823F43A
:102758000053D3602046FFF767FF2268136923F40C
:10276800904313612268536923F02A035361226856
:10277800D36843F40053D36000206064202384F8B6
:10278800413084F84230606310BD80F84030FEF775
:10279800DBFAD7E701207047704708B50168CA68B7
:1027A80022F04002CA60202280F84120FFF7F4FF9F
:1027B800002008BD7047704708B5806B0023C385AB
:1027C800FFF7F9FF08BD704790F84230DBB2222BC3
:1027D80069D18368B3F5805F4FD0826AB3F5805FB3
:1027E80004D0002B56D10369002B53D103685B68D2
:1027F8001370836A01338362C38D9BB2013B9BB222
:10280800C385002B51D100B583B00268D36823F08B
:102818002003D3600268D36823F48073D36002680E
:10282800536923F001035361202380F842300023C9
:102838004363036B012B33D100230363026802F166
:102848000C0353E8003F23F010030C3242E8003138
:102858000029F3D103681A6812F0100F06D000227D
:1028680001921A6801925B680193019B818DFFF7C1
:10287800AAFF002003B05DF804FB0269002AACD16E
:10288800826A03685B68C3F308031380836A0233B0
:102898008362B1E703685B6803F07F031370A8E7FE
:1028A800FFF788FFE5E70220704700207047000027
:1028B80030B583B0044602681368D068516913F0D4
:1028C8000F0505D113F0200F02D010F0200F19D1F9
:1028D8002DB111F0010119D110F4907F16D1216B9F
:1028E80001297DD013F0800F03D010F0800F40F045
:1028F800268113F0400F03D010F0400F40F02381E1
:1029080003B030BD2046FFF75FFFF9E713F0010F72
:1029180006D010F4807F03D0626C42F0010262643A
:1029280013F0040F04D019B1626C42F00202626421
:1029380013F0020F04D019B1626C42F00402626411
:1029480013F0080F07D010F0200F00D119B1626CF6
:1029580042F008026264626C002AD1D013F0200FA2
:1029680002D010F0200F29D123685B6903F04003DF
:10297800626C12F0080F00D163B32046FFF7F6FD32
:1029880023685B6913F0400F20D0226802F114031A
:1029980053E8003F23F04003143242E80031002995
:1029A800F3D1E36B73B16A4A1A65E06BFFF77CF801
:1029B8000028A5D0E06B036D9847A1E72046FFF7F4
:1029C80003FFD1E72046FFF7F6FE99E72046FFF719
:1029D800F2FE95E72046FFF7EEFE002363648FE7DB
:1029E80013F0100F3FF47EAF10F0100F3FF47AAFE2
:1029F800002301931368019353680193019B536962
:102A080013F0400F5FD0E26B13685B689BB2002B3A
:102A18004AD0A18D994247D9E385D369B3F5807F20
:102A280037D0226802F10C0353E8003F23F4807387
:102A38000C3242E800310029F3D1226802F1140374
:102A480053E8003F23F00103143242E80031002923
:102A5800F3D1226802F1140353E8003F23F0400346
:102A6800143242E800310029F3D1202384F842309F
:102A780000232363226802F10C0353E8003F23F08C
:102A880010030C3242E800310029F3D1E06BFEF765
:102A9800C1FF02236363A18DE38D9BB2C91A89B27A
:102AA8002046FFF790FE2BE7A18D99427FF428AFCF
:102AB800D369B3F5807F7FF423AF02236363204695
:102AC800FFF781FE1CE7A18DE38D9BB2C91A89B27D
:102AD800E38D9BB2002B3FF413AF00293FF410AFF6
:102AE800226802F10C0353E8003F23F490730C3280
:102AF80042E800300028F3D1226802F1140353E8B9
:102B0800003F23F00103143242E800300028F3D1DB
:102B1800202384F8423000232363226802F10C0347
:102B280053E8003F23F010030C3242E8003000283D
:102B3800F3D1022363632046FFF745FEE0E6204613
:102B4800FFF742FDDCE62046FFF727FED8E600BF88
:102B5800C1270008034AD2F8883043F47003C2F84A
:102B68008830704700ED00E0DFF834D0FFF7F2FF5F
:102B78000C480D490D4A002302E0D458C4500433D0
:102B8800C4188C42F9D30A4A0A4C002301E01360A6
:102B98000432A242FBD3FDF737FBFDF781FD7047F6
:102BA80000000220000000200C000020042C000877
:102BB8000C00002084020020FEE70000F8B500BFEA
:102BC800F8BC08BC9E467047F8B500BFF8BC08BC06
:042BD8009E4670475E
:102BDC0000000000000000000102030406070809C1
:082BEC000000000001020304D7
:082BF40038D7FF7F010000004B
:042BFC00F1010008DB
:042C0000C9010008FE
:0C2C040001000000100000000024F4009B
:0400000508002B7153
:00000001FF
